{
  "_format": "hh-sol-artifact-1",
  "contractName": "WaveMe",
  "sourceName": "contracts/WaveMe.sol",
  "abi": [
    {
      "inputs": [],
      "stateMutability": "payable",
      "type": "constructor"
    },
    {
      "anonymous": false,
      "inputs": [
        {
          "indexed": false,
          "internalType": "address",
          "name": "sender",
          "type": "address"
        },
        {
          "indexed": false,
          "internalType": "string",
          "name": "message",
          "type": "string"
        },
        {
          "indexed": false,
          "internalType": "uint256",
          "name": "date",
          "type": "uint256"
        }
      ],
      "name": "waveComplete",
      "type": "event"
    },
    {
      "inputs": [],
      "name": "allMessages",
      "outputs": [
        {
          "components": [
            {
              "internalType": "address",
              "name": "sender",
              "type": "address"
            },
            {
              "internalType": "string",
              "name": "message",
              "type": "string"
            },
            {
              "internalType": "uint256",
              "name": "date",
              "type": "uint256"
            },
            {
              "internalType": "uint256",
              "name": "wavedNumber",
              "type": "uint256"
            }
          ],
          "internalType": "struct WaveMe.WaveDetail[]",
          "name": "",
          "type": "tuple[]"
        }
      ],
      "stateMutability": "view",
      "type": "function"
    },
    {
      "inputs": [
        {
          "internalType": "uint256",
          "name": "",
          "type": "uint256"
        }
      ],
      "name": "allWaves",
      "outputs": [
        {
          "internalType": "address",
          "name": "sender",
          "type": "address"
        },
        {
          "internalType": "string",
          "name": "message",
          "type": "string"
        },
        {
          "internalType": "uint256",
          "name": "date",
          "type": "uint256"
        },
        {
          "internalType": "uint256",
          "name": "wavedNumber",
          "type": "uint256"
        }
      ],
      "stateMutability": "view",
      "type": "function"
    },
    {
      "inputs": [],
      "name": "getContractBalance",
      "outputs": [
        {
          "internalType": "uint256",
          "name": "",
          "type": "uint256"
        }
      ],
      "stateMutability": "view",
      "type": "function"
    },
    {
      "inputs": [
        {
          "internalType": "address",
          "name": "",
          "type": "address"
        },
        {
          "internalType": "uint256",
          "name": "",
          "type": "uint256"
        }
      ],
      "name": "messageFromWaver",
      "outputs": [
        {
          "internalType": "string",
          "name": "",
          "type": "string"
        }
      ],
      "stateMutability": "view",
      "type": "function"
    },
    {
      "inputs": [],
      "name": "prizeAmount",
      "outputs": [
        {
          "internalType": "uint256",
          "name": "",
          "type": "uint256"
        }
      ],
      "stateMutability": "view",
      "type": "function"
    },
    {
      "inputs": [
        {
          "internalType": "address",
          "name": "_address",
          "type": "address"
        }
      ],
      "name": "showMessage",
      "outputs": [
        {
          "internalType": "string[]",
          "name": "messagesAre",
          "type": "string[]"
        }
      ],
      "stateMutability": "view",
      "type": "function"
    },
    {
      "inputs": [],
      "name": "showTotalCount",
      "outputs": [
        {
          "internalType": "uint256",
          "name": "",
          "type": "uint256"
        }
      ],
      "stateMutability": "view",
      "type": "function"
    },
    {
      "inputs": [],
      "name": "totalCount",
      "outputs": [
        {
          "internalType": "uint256",
          "name": "",
          "type": "uint256"
        }
      ],
      "stateMutability": "view",
      "type": "function"
    },
    {
      "inputs": [
        {
          "internalType": "string",
          "name": "_message",
          "type": "string"
        }
      ],
      "name": "waveAtMe",
      "outputs": [],
      "stateMutability": "payable",
      "type": "function"
    },
    {
      "inputs": [
        {
          "internalType": "uint256",
          "name": "",
          "type": "uint256"
        }
      ],
      "name": "wavers",
      "outputs": [
        {
          "internalType": "address",
          "name": "",
          "type": "address"
        }
      ],
      "stateMutability": "view",
      "type": "function"
    },
    {
      "inputs": [],
      "name": "withdrawFunds",
      "outputs": [],
      "stateMutability": "payable",
      "type": "function"
    },
    {
      "stateMutability": "payable",
      "type": "receive"
    }
  ],
  "bytecode": "0x60a06040523373ffffffffffffffffffffffffffffffffffffffff1660808173ffffffffffffffffffffffffffffffffffffffff1660601b815250506000808190555060805160601c61161961006d6000396000818160a70152818161045501526104e501526116196000f3fe6080604052600436106100a05760003560e01c80633ca736bd116100645780633ca736bd146101cc5780636f9fb98a14610209578063785fa627146102345780638a47f29e1461025f578063ba4ff22b1461027b578063c9221500146102b8576100ff565b806310a7fef91461010457806324600fc31461012f57806330c08c4b14610139578063314bbd5f1461016457806334eafb11146101a1576100ff565b366100ff577f000000000000000000000000000000000000000000000000000000000000000073ffffffffffffffffffffffffffffffffffffffff163373ffffffffffffffffffffffffffffffffffffffff16146100fd57600080fd5b005b600080fd5b34801561011057600080fd5b506101196102f8565b60405161012691906111f2565b60405180910390f35b610137610453565b005b34801561014557600080fd5b5061014e61057d565b60405161015b9190611296565b60405180910390f35b34801561017057600080fd5b5061018b60048036038101906101869190610d56565b610586565b6040516101989190611214565b60405180910390f35b3480156101ad57600080fd5b506101b661063f565b6040516101c39190611296565b60405180910390f35b3480156101d857600080fd5b506101f360048036038101906101ee9190610dd3565b610645565b604051610200919061112b565b60405180910390f35b34801561021557600080fd5b5061021e610684565b60405161022b9190611296565b60405180910390f35b34801561024057600080fd5b5061024961068c565b6040516102569190611296565b60405180910390f35b61027960048036038101906102749190610d92565b610698565b005b34801561028757600080fd5b506102a2600480360381019061029d9190610d2d565b6109f2565b6040516102af91906111d0565b60405180910390f35b3480156102c457600080fd5b506102df60048036038101906102da9190610dd3565b610b10565b6040516102ef9493929190611184565b60405180910390f35b60606003805480602002602001604051908101604052809291908181526020016000905b8282101561044a57838290600052602060002090600402016040518060800160405290816000820160009054906101000a900473ffffffffffffffffffffffffffffffffffffffff1673ffffffffffffffffffffffffffffffffffffffff1673ffffffffffffffffffffffffffffffffffffffff1681526020016001820180546103a590611485565b80601f01602080910402602001604051908101604052809291908181526020018280546103d190611485565b801561041e5780601f106103f35761010080835404028352916020019161041e565b820191906000526020600020905b81548152906001019060200180831161040157829003601f168201915b50505050508152602001600282015481526020016003820154815250508152602001906001019061031c565b50505050905090565b7f000000000000000000000000000000000000000000000000000000000000000073ffffffffffffffffffffffffffffffffffffffff163373ffffffffffffffffffffffffffffffffffffffff16146104e1576040517f08c379a00000000000000000000000000000000000000000000000000000000081526004016104d890611276565b60405180910390fd5b60007f000000000000000000000000000000000000000000000000000000000000000073ffffffffffffffffffffffffffffffffffffffff166108fc479081150290604051600060405180830381858888f1935050505090508061057a576040517f08c379a000000000000000000000000000000000000000000000000000000000815260040161057190611236565b60405180910390fd5b50565b60008054905090565b600260205281600052604060002081815481106105a257600080fd5b906000526020600020016000915091505080546105be90611485565b80601f01602080910402602001604051908101604052809291908181526020018280546105ea90611485565b80156106375780601f1061060c57610100808354040283529160200191610637565b820191906000526020600020905b81548152906001019060200180831161061a57829003601f168201915b505050505081565b60005481565b6001818154811061065557600080fd5b906000526020600020016000915054906101000a900473ffffffffffffffffffffffffffffffffffffffff1681565b600047905090565b67016345785d8a000081565b42603c600460003373ffffffffffffffffffffffffffffffffffffffff1673ffffffffffffffffffffffffffffffffffffffff168152602001908152602001600020546106e591906113b1565b106106ef57600080fd5b600160008082825461070191906113b1565b925050819055506001339080600181540180825580915050600190039060005260206000200160009091909190916101000a81548173ffffffffffffffffffffffffffffffffffffffff021916908373ffffffffffffffffffffffffffffffffffffffff160217905550600260003373ffffffffffffffffffffffffffffffffffffffff1673ffffffffffffffffffffffffffffffffffffffff168152602001908152602001600020819080600181540180825580915050600190039060005260206000200160009091909190915090805190602001906107e3929190610bf8565b50600360405180608001604052803373ffffffffffffffffffffffffffffffffffffffff168152602001838152602001428152602001600054815250908060018154018082558091505060019003906000526020600020906004020160009091909190915060008201518160000160006101000a81548173ffffffffffffffffffffffffffffffffffffffff021916908373ffffffffffffffffffffffffffffffffffffffff16021790555060208201518160010190805190602001906108ab929190610bf8565b506040820151816002015560608201518160030155505042600460003373ffffffffffffffffffffffffffffffffffffffff1673ffffffffffffffffffffffffffffffffffffffff168152602001908152602001600020819055506000600360005461091791906114b7565b14801561092c57504767016345785d8a000011155b156109b45760003373ffffffffffffffffffffffffffffffffffffffff166108fc67016345785d8a00009081150290604051600060405180830381858888f193505050509050806109b2576040517f08c379a00000000000000000000000000000000000000000000000000000000081526004016109a990611256565b60405180910390fd5b505b7f61d0237c1ba8a4dac7b2170c7007f6768d0496d009256a1e6f5c97925a80e1153382426040516109e793929190611146565b60405180910390a150565b60606000600260008473ffffffffffffffffffffffffffffffffffffffff1673ffffffffffffffffffffffffffffffffffffffff168152602001908152602001600020805480602002602001604051908101604052809291908181526020016000905b82821015610b01578382906000526020600020018054610a7490611485565b80601f0160208091040260200160405190810160405280929190818152602001828054610aa090611485565b8015610aed5780601f10610ac257610100808354040283529160200191610aed565b820191906000526020600020905b815481529060010190602001808311610ad057829003601f168201915b505050505081526020019060010190610a55565b50505050905080915050919050565b60038181548110610b2057600080fd5b90600052602060002090600402016000915090508060000160009054906101000a900473ffffffffffffffffffffffffffffffffffffffff1690806001018054610b6990611485565b80601f0160208091040260200160405190810160405280929190818152602001828054610b9590611485565b8015610be25780601f10610bb757610100808354040283529160200191610be2565b820191906000526020600020905b815481529060010190602001808311610bc557829003601f168201915b5050505050908060020154908060030154905084565b828054610c0490611485565b90600052602060002090601f016020900481019282610c265760008555610c6d565b82601f10610c3f57805160ff1916838001178555610c6d565b82800160010185558215610c6d579182015b82811115610c6c578251825591602001919060010190610c51565b5b509050610c7a9190610c7e565b5090565b5b80821115610c97576000816000905550600101610c7f565b5090565b6000610cae610ca9846112e2565b6112b1565b905082815260208101848484011115610cc657600080fd5b610cd1848285611443565b509392505050565b600081359050610ce8816115b5565b92915050565b600082601f830112610cff57600080fd5b8135610d0f848260208601610c9b565b91505092915050565b600081359050610d27816115cc565b92915050565b600060208284031215610d3f57600080fd5b6000610d4d84828501610cd9565b91505092915050565b60008060408385031215610d6957600080fd5b6000610d7785828601610cd9565b9250506020610d8885828601610d18565b9150509250929050565b600060208284031215610da457600080fd5b600082013567ffffffffffffffff811115610dbe57600080fd5b610dca84828501610cee565b91505092915050565b600060208284031215610de557600080fd5b6000610df384828501610d18565b91505092915050565b6000610e088383610f2c565b905092915050565b6000610e1c83836110aa565b905092915050565b610e2d81611407565b82525050565b610e3c81611407565b82525050565b6000610e4d82611332565b610e57818561136d565b935083602082028501610e6985611312565b8060005b85811015610ea55784840389528151610e868582610dfc565b9450610e9183611353565b925060208a01995050600181019050610e6d565b50829750879550505050505092915050565b6000610ec28261133d565b610ecc818561137e565b935083602082028501610ede85611322565b8060005b85811015610f1a5784840389528151610efb8582610e10565b9450610f0683611360565b925060208a01995050600181019050610ee2565b50829750879550505050505092915050565b6000610f3782611348565b610f41818561138f565b9350610f51818560208601611452565b610f5a816115a4565b840191505092915050565b6000610f7082611348565b610f7a81856113a0565b9350610f8a818560208601611452565b610f93816115a4565b840191505092915050565b6000610fab6019836113a0565b91507f4661696c656420746f20776974686472617720616d6f756e74000000000000006000830152602082019050919050565b6000610feb6027836113a0565b91507f4661696c656420746f207769746864726177206d6f6e65792066726f6d20636f60008301527f6e74726163742e000000000000000000000000000000000000000000000000006020830152604082019050919050565b60006110516038836113a0565b91507f4f6e6c79204f776e6572206f662074686520636f6e747261637420697320616c60008301527f6c6f77656420746f2077697468647261772066756e64732e00000000000000006020830152604082019050919050565b60006080830160008301516110c26000860182610e24565b50602083015184820360208601526110da8282610f2c565b91505060408301516110ef604086018261110d565b506060830151611102606086018261110d565b508091505092915050565b61111681611439565b82525050565b61112581611439565b82525050565b60006020820190506111406000830184610e33565b92915050565b600060608201905061115b6000830186610e33565b818103602083015261116d8185610f65565b905061117c604083018461111c565b949350505050565b60006080820190506111996000830187610e33565b81810360208301526111ab8186610f65565b90506111ba604083018561111c565b6111c7606083018461111c565b95945050505050565b600060208201905081810360008301526111ea8184610e42565b905092915050565b6000602082019050818103600083015261120c8184610eb7565b905092915050565b6000602082019050818103600083015261122e8184610f65565b905092915050565b6000602082019050818103600083015261124f81610f9e565b9050919050565b6000602082019050818103600083015261126f81610fde565b9050919050565b6000602082019050818103600083015261128f81611044565b9050919050565b60006020820190506112ab600083018461111c565b92915050565b6000604051905081810181811067ffffffffffffffff821117156112d8576112d7611575565b5b8060405250919050565b600067ffffffffffffffff8211156112fd576112fc611575565b5b601f19601f8301169050602081019050919050565b6000819050602082019050919050565b6000819050602082019050919050565b600081519050919050565b600081519050919050565b600081519050919050565b6000602082019050919050565b6000602082019050919050565b600082825260208201905092915050565b600082825260208201905092915050565b600082825260208201905092915050565b600082825260208201905092915050565b60006113bc82611439565b91506113c783611439565b9250827fffffffffffffffffffffffffffffffffffffffffffffffffffffffffffffffff038211156113fc576113fb6114e8565b5b828201905092915050565b600061141282611419565b9050919050565b600073ffffffffffffffffffffffffffffffffffffffff82169050919050565b6000819050919050565b82818337600083830152505050565b60005b83811015611470578082015181840152602081019050611455565b8381111561147f576000848401525b50505050565b6000600282049050600182168061149d57607f821691505b602082108114156114b1576114b0611546565b5b50919050565b60006114c282611439565b91506114cd83611439565b9250826114dd576114dc611517565b5b828206905092915050565b7f4e487b7100000000000000000000000000000000000000000000000000000000600052601160045260246000fd5b7f4e487b7100000000000000000000000000000000000000000000000000000000600052601260045260246000fd5b7f4e487b7100000000000000000000000000000000000000000000000000000000600052602260045260246000fd5b7f4e487b7100000000000000000000000000000000000000000000000000000000600052604160045260246000fd5b6000601f19601f8301169050919050565b6115be81611407565b81146115c957600080fd5b50565b6115d581611439565b81146115e057600080fd5b5056fea2646970667358221220078166c8d3506323dd19da57df0121e19d1af2e09bba417de8da0b0e2aca922164736f6c63430008000033",
  "linkReferences": {},
  "deployedLinkReferences": {}
}